S00D00004C414231312E73726563E6
S113000071C0000086C0000084C0000082C00000EF
S113001080C000007EC000007CC000007AC00000E8
S113002078C0000076C0000074C0000072C00000F8
S113003070C000006EC000006CC000006AC0000008
S113004068C0000066C0000064C0000062C0000018
S113005060C000005EC000005CC000005AC0000028
S113006058C0000056C0000054C0000052C0000038
S113007050C000004EC000004CC000004AC0000048
S113008048C0000046C0000044C0000042C0000058
S113009040C000003EC000003CC000003AC0000068
S11300A038C0000036C0000034C0000032C0000078
S11300B030C000002EC000002CC000002AC0000088
S11300C028C0000026C0000024C0000022C0000098
S11300D020C000001EC000001CC000001AC00000A8
S11300E018C0000011241FBECFEFD1E2DEBFCDBF88
S11300F000E00CBF12E0A0E0B2E0ECE7F3E000E0C7
S11301000BBF02C007900D92A433B107D9F708D0F2
S113011033C176CF8FEF84B915B8089585B90895A2
S1130120CF93DF93CDB7DEB76A970FB6F894DEBFEF
S11301300FBECDBF8AE1EAE1F2E0DE011196019043
S11301400D928A95E1F7E6DF48E060E875E280E029
S113015090E04AD081E0E2DF81E48BD082E489D070
S113016083E487D08DE085D08AE083D082E0D6DF37
S113017079D07FD08DE07DD08AE07BD083E0CEDF64
S11301806DD08823E9F36ED074D08DE072D08AE00C
S113019070D084E0C3DFCE01019672D085E0BEDF6B
S11301A080E092E06DD086E0B9DF89E390E374D01B
S11301B08DE05FD08AE05DD088E19CEF6DD08DE06A
S11301C058D08AE056D01BEF08C0812F012E000CB6
S11301D0990B62D080E24DD01F5F1530B4F38DE0EF
S11301E048D08AE046D0B6CF0F931F938B019C0171
S11301F00C52114021093109053D104C21403105B3
S113020050F5453040F1493030F528E12093C100E4
S11302104550440F4093C200DC01CB01880F991F65
S1130220AA1FBB1F880F991FAA1FBB1F9C01AD01EA
S1130230220F331F441F551F220F331F441F551F06
S113024060E074E284EF90E042D0215031093093B1
S1130250C5002093C4001F910F9108958091C000A0
S1130260807808958091C0008823E4F78091C600C7
S113027008959091C00095FFFCCF8093C600089527
S1130280CF93DF93EC0102C0F4DF219688818111C2
S1130290FBCFDF91CF910895CF93DF93CDB7DEB736
S11302A027970FB6F894DEBF0FBECDBF4AE0BE015C
S11302B06F5F7F4F2ED0CE010196E2DF27960FB6F7
S11302C0F894DEBF0FBECDBFDF91CF910895A1E2B8
S11302D01A2EAA1BBB1BFD010DC0AA1FBB1FEE1FBC
S11302E0FF1FA217B307E407F50720F0A21BB30B07
S11302F0E40BF50B661F771F881F991F1A9469F783
S113030060957095809590959B01AC01BD01CF01DE
S11303100895BB274A3031F4992322F4BDE2909525
S113032081959F4F01C0BB27FB015527AA27880F42
S1130330991FAA1FA41710F0A41B83955051B9F755
S1130340A05DAA3308F0A95DA193009779F7B111D4
S1130350B1931192CB0100C0DC01FC01672F7191B4
S11303607723E1F7329704C07C916D937083629197
S10F0370AE17BF07C8F30895F894FFCF40
S113037C5468697320697320737472696E67206E94
S113038C756D62657220320D0A00546869732069B8
S113039C7320737472696E67206E756D626572205A
S10703AC310D0A0001
S9030000FC
